:020000040800F2
:10000000B006002045010008F1250008F32500088E
:10001000F7250008FB250008FF2500080000000068
:10002000000000000000000000000000032600089F
:100030000526000800000000072600080926000821
:100040005F0100085F0100085F0100085F01000810
:100050005F0100085F0100085F0100085F01000800
:100060005F0100085F0100085F0100085F010008F0
:100070005F0100085F0100085F0100085F010008E0
:100080005F0100085F0100085F0100085F010008D0
:100090005F0100085F0100085F0100085F010008C0
:1000A0005F0100085F0100085F0100085F010008B0
:1000B0005F0100085F0100085F0100085F010008A0
:1000C0005F0100085F0100085F0100085F01000890
:1000D0005F010008152600085F0100085F010008A5
:1000E0005F0100085F0100085F0100085F01000870
:1000F0005F0100085F0100085F0100085F01000860
:100100005F0100085F0100085F0100085F0100084F
:100110005F0100085F0100085F0100085F0100083F
:100120005F0100085F0100085F0100085F0100082F
:10013000DFF80CD006F05AFF004800479D1F00086A
:10014000B00600200648804706480047FEE7FEE765
:10015000FEE7FEE7FEE7FEE7FEE7FEE7FEE7FEE777
:1001600047020008310100080CB500200190009002
:100170006C48006840F480306A49086000BF6948F4
:10018000006800F4003000900198401C0190009835
:1001900018B90198B0F5A06FF1D16248006800F479
:1001A000003010B10120009001E000200090009884
:1001B000012843D15C48006840F010005A490860AB
:1001C0000846006820F0030008600846006840F018
:1001D0000200086053484068524948600846406839
:1001E00048600846406840F48060486008464068BF
:1001F00020F47C1048600846406840F4E8104860ED
:100200000846006840F08070086000BF45480068FC
:1002100000F000700028F9D04248406820F0030048
:10022000404948600846406840F00200486000BF0E
:100230003C48406800F00C000828F9D10CBD10B50E
:10024000FFF792FF10BD10B53648006840F001007E
:1002500034490860084640683449084031494860DC
:1002600008460068324908402E4908600846006880
:1002700020F4802008600846406820F4FE004860B2
:100280004FF41F008860FFF7DAFF4FF00060294944
:10029000086010BD10B5002100200022214B5B68D2
:1002A00003F00C0121B1042906D0082928D107E068
:1002B000214B224C236027E01F4B204C236023E07E
:1002C000184B5B6803F47010164B5B6803F48032C4
:1002D000022303EB904022B9194B4343174C236090
:1002E0000DE0104B5B6803F4003323B1144B434320
:1002F000124C236003E0104B4343104C236003E097
:100300000D4B0E4C236000BF00BF064B5B68C3F370
:1003100003130C4CE15C094B1B68CB40074C23607A
:1003200010BD000000100240002002400000FFF855
:10033000FFFFF6FE08ED00E000127A00000000204A
:1003400000093D000400002031490143314A116099
:10035000704770B5002100230F22C47804B32D4CE0
:10036000246804F4E064C4F5E064210AC1F10403E4
:10037000CA40447804FA03F1847814402143090107
:10038000254C0678A155047804F01F050124AC40E3
:1003900005786D11AD0005F1E025C5F8004109E0D3
:1003A000047804F01F050124AC401C4D067876113A
:1003B00045F8264070BD1A4A0A400243154B1B1FE0
:1003C0001A60704739B1134A121D12680243114B6B
:1003D0001B1D1A6006E00F4A121D126882430D4B66
:1003E0001B1D1A607047042808D14FF0E0210969ED
:1003F00041F004014FF0E022116107E04FF0E021ED
:10040000096921F004014FF0E022116170470000FA
:100410000000FA050CED00E000E400E080E100E0FF
:1004200080FFFF1F01684FF6FE721140016000213E
:10043000016041608160C1608D49884208D18C496A
:100440000839496841F00F01894A083A51608AE049
:1004500087491431884208D185490839496841F0F3
:10046000F001834A083A51607DE081492831884291
:1004700008D17F490839496841F470617C4A083ADB
:10048000516070E07A493C31884208D17849083996
:10049000496841F47041764A083A516063E0744912
:1004A0005031884208D172490839496841F47021B5
:1004B0006F4A083A516056E06D496431884208D16C
:1004C0006B490839496841F47001694A083A51603A
:1004D00049E067497831884208D165490839496857
:1004E00041F07061624A083A51603CE061498842DB
:1004F00006D1011F096841F00F01021F116032E0AF
:100500005C491431884208D15A49091F096841F0F1
:10051000F001584A121F116025E0564928318842DF
:1005200008D15449091F096841F47061514A121FEA
:10053000116018E04F493C31884208D14D49091FEC
:10054000096841F470414B4A121F11600BE04949A0
:100550005031884207D14749091F096841F4702189
:10056000444A121F1160704710B50022026847F616
:10057000F0739A430C6A8B6823430C6923434C69DC
:1005800023438C692343CC6923434C6A23438C6AFD
:1005900023431A430260CB6843600B6883604B6857
:1005A000C36010BD0021016041608160C1600161D4
:1005B00041618161C161016241628162704721B123
:1005C000026842F00102026004E002684FF6FE7326
:1005D0001A40026070471AB103680B43036002E0DF
:1005E00003688B4303607047416070470146486869
:1005F00080B2704701460020002201F080531BB1F9
:100600001C4B083B1A6802E0194B083B1A6802EAC7
:1006100001030BB1012000E00020704700F0805181
:1006200019B11449091F086002E0114908394860EE
:10063000704701460020002201F080531BB10D4B92
:10064000083B1A6802E00A4B083B1A6802EA0103F9
:100650000BB1012000E00020704700F0805119B17B
:100660000449091F086002E00149083948607047E1
:10067000080002400804024010B50446CC488442F9
:1006800008D10121042000F02DFB0021042000F0FE
:1006900029FB46E0C748844208D10121082000F028
:1006A00021FB0021082000F01DFB3AE0C2488442F3
:1006B00008D10121102000F015FB0021102000F0CE
:1006C00011FB2EE0BD48844208D10121202000F01A
:1006D00009FB0021202000F005FB22E0B8488442FD
:1006E00008D10121402000F0FDFA0021402000F057
:1006F000F9FA16E0B348844208D10121802000F0C5
:10070000F1FA0021802000F0EDFA0AE0AE488442C0
:1007100007D10121801500F0E5FA0021A01500F0B5
:10072000E1FA10BD10B50121084600F0DBFA002106
:10073000012000F0D7FA10BD2DE9F0410246002556
:100740000026002000230024002791F803C00CF0AD
:100750000F0591F803C00CF0100CBCF1000F03D092
:1007600091F802C04CEA050591F800C0BCF1000FF9
:1007700031D0146800202BE04FF0010C0CFA00F38C
:10078000B1F800C00CEA03069E4220D183004FF06E
:100790000F0C0CFA03F7BC4305FA03FC4CEA040403
:1007A00091F803C0BCF1280F06D14FF0010C0CFAF0
:1007B00000FCC2F814C00AE091F803C0BCF1480F75
:1007C00005D14FF0010C0CFA00FCC2F810C0401C1F
:1007D0000828D1D31460B1F800C0BCF1FF0F34DD9C
:1007E000546800202EE000F1080C4FF0010808FAD0
:1007F0000CF3B1F800C00CEA03069E4221D183003D
:100800004FF00F0C0CFA03F7BC4305FA03FC4CEA5B
:10081000040491F803C0BCF1280F05D100F1080CC5
:1008200008FA0CF8C2F8148091F803C0BCF1480F24
:1008300007D100F1080C4FF0010808FA0CF8C2F8D3
:100840001080401C0828CED35460BDE8F0814FF6DC
:10085000FF710180022181700421C170704702463E
:10086000002093680B400BB1012000E0002070478E
:100870000146886880B2704702460020D3680B406A
:100880000BB1012000E0002070470146C86880B22B
:10089000704701617047416170470AB1016100E032
:1008A00041617047C16070474FF480320A438261F2
:1008B0008161826182698269704702460020434BF0
:1008C00018684FF68073184040EA021008433F4B07
:1008D000186070473E49C8617047F0B50A4600236A
:1008E00000240021002500F00046B6F1004F02D19F
:1008F000364EF16901E0354E7168C0F3034583B2AD
:1009000000F44016B6F5401F08D121F070612F4E5B
:10091000766826F070662D4F7E6012E000F4801637
:10092000B6F5801F06D1032606FA05F4A14341F06F
:10093000706106E0460D360103FA06F6B14341F058
:10094000706122B1460D360103FA06F6314300F01C
:100950000046B6F1004F02D11C4EF16101E01B4E82
:100960007160F0BD30B500228B071C0F0F2303FA16
:1009700004F2164B08338C1053F824309343134C75
:1009800008348D1044F8253023468C1053F8243059
:100990008C07240F00FA04F423430C4C08348D1008
:1009A00044F8253030BD0A49DC310860704700004A
:1009B00000080140000C01400010014000140140FB
:1009C00000180140001C01400020014000000140CF
:1009D00000002042DF48006840F00100DD49086067
:1009E00008464068DC490840DA4948600846006823
:1009F000DA490840D74908600846006820F480209A
:100A000008600846406820F4FE0048604FF41F006C
:100A100088607047CF49096821F48031CD4A116060
:100A20001146096821F480211160B0F5803F03D0A0
:100A3000B0F5802F0ED106E0C649096841F4803137
:100A4000C44A116007E0C349096841F4A021C14AC2
:100A5000116000E000BF00BF704710B501460022E2
:100A6000002300204A11012A02D1BA4C236806E073
:100A7000022A02D1B74C236A01E0B64C636A01F046
:100A80001F02012494401C400CB1012000E0002012
:100A900010BD38B5002000900024002500BF312093
:100AA000FFF7DBFF05460098401C00900098B0F56A
:100AB000A06F01D0002DF2D03120FFF7CEFF08B19A
:100AC000012400E00024204638BD01460020A14A50
:100AD000106820F0F80040EAC10010607047A0499B
:100AE00008607047024600209A4B586820F47C103A
:100AF00042EA01031843974B5860704798490866CB
:100B0000704701460020934A506820F003000843D4
:100B1000506070478F48406800F00C0070470146F5
:100B200000208C4A506820F0F00008435060704765
:100B300001460020874A506820F4E0600843506076
:100B4000704701460020834A506820F4605040EA14
:100B5000C1005060704729B17E4A527A02437D4BF2
:100B60005A7204E07B4A527A82437A4B5A72704737
:100B70007B49D8310860704701460020754A5068AB
:100B800020F440400843506070470021714A2032F1
:100B90001170704A82F82010012802D004280AD16E
:100BA00004E001216B4A2032117005E00521694AF9
:100BB0002032117000E000BF00BF70476949086033
:100BC00070476449096A0143624A11627047654986
:100BD00044390860704730B500210022002400230A
:100BE0005C4D6D6805F00C0121B1042905D0082980
:100BF00023D105E05C4D056022E05B4D05601FE000
:100C0000544D6D6805F47012524D6D6805F48034D2
:100C1000022505EB92421CB9544D554305600BE08B
:100C20004C4D6D6805F400351DB1504D55430560C0
:100C300002E04D4D5543056002E04B4D056000BF9D
:100C400000BF444D6D6805F0F0010909484D6B5C2B
:100C50000568DD4045603F4D6D6805F4E061090AB7
:100C6000434D6B5C4568DD4085603A4D6D6805F429
:100C70006051C90A3E4D6B5C4568DD40C560354D2D
:100C80006D6805F44041890B3A4D6B5CC568B5FB56
:100C9000F3F5056130BD29B12E4A526902432D4B4F
:100CA0005A6104E02B4A526982432A4B5A617047C9
:100CB00029B1284A92690243264B9A6104E0254AE9
:100CC00092698243234B9A61704729B1214AD269C4
:100CD0000243204BDA6104E01E4AD26982431D4B75
:100CE000DA61704729B11B4AD2680243194BDA60B6
:100CF00004E0184AD2688243164BDA60704729B183
:100D0000144A12690243134B1A6104E0114A126932
:100D10008243104B1A61704712494039086070478E
:100D20000F49C86470470B49C87170470948406A49
:100D300040F0807007494862704701460020054A2C
:100D400092680A400AB1012000E000207047014982
:100D500088727047001002400000FFF8FFFFF6FEA7
:100D6000000042428004424200127A0000093D0025
:100D7000140000202400002010B50446FE488442E0
:100D800008D10121C014FFF7ADFF0021E014FFF7E7
:100D9000A9FFC4E0B4F1804F08D101210846FFF754
:100DA000AEFF00210120FFF7AAFFB8E0F34884421C
:100DB00008D101210220FFF7A2FF00210220FFF746
:100DC0009EFFACE0EE48844208D101210420FFF7E9
:100DD00096FF00210420FFF792FFA0E0E94884423B
:100DE00008D101210820FFF78AFF00210820FFF722
:100DF00086FF94E0E448844208D101211020FFF7E7
:100E00007EFF00211020FFF77AFF88E0DF48844250
:100E100008D101212020FFF772FF00212020FFF7D9
:100E20006EFF7CE0DA48844208D101214014FFF7CC
:100E300059FF00216014FFF755FF70E0D548844248
:100E400009D10121C804FFF74DFF00214FF4002014
:100E5000FFF748FF63E0D048844209D1012108052B
:100E6000FFF740FF00214FF48010FFF73BFF56E0F3
:100E7000CA48844209D101214805FFF733FF002108
:100E80004FF40010FFF72EFF49E0C548844208D117
:100E900001214020FFF733FF00214020FFF72FFF03
:100EA0003DE0C048844208D101218020FFF727FFA0
:100EB00000218020FFF723FF31E0BB48844208D1A6
:100EC00001218015FFF71BFF0021A015FFF717FF79
:100ED00025E0B648844209D101210804FFF702FF4A
:100EE00000214FF48030FFF7FDFE18E0B048844247
:100EF00009D101214804FFF7F5FE00214FF400302D
:100F0000FFF7F0FE0BE0AB48844208D101218804D2
:100F1000FFF7E8FE00214FF48020FFF7E3FE10BD4D
:100F200000220288944B98420ED0994B98420BD0E5
:100F3000B0F1804F08D0914B984205D0904B984229
:100F400002D0904B984204D14FF68F731A404B88D1
:100F50001A438D4B984207D08C4B984204D04FF6E1
:100F6000FF431A40CB881A4302808B8883850B8805
:100F70000385814B98420BD0854B984208D08B4B10
:100F8000984205D08A4B984202D08A4B984201D1B0
:100F90000B7A038601238382704770B500240022F8
:100FA0000023058C4FF6FE7635400584028C83883D
:100FB000048B4FF68F752C40B51E2C400D882C43AA
:100FC000751E2A400D892A434D882A436A4DA8423E
:100FD0000BD06F4DA84208D0744DA84205D0744D77
:100FE000A84202D0734DA84213D14FF6F7752A409C
:100FF0004D892A434FF6FB752A408D882A434FF6C8
:10100000FF652B404FF6FF552B408D892B43CD8933
:101010002B4383800483CD888586028470BD70B5A0
:10102000002400220023058C4FF6EF76354005841E
:10103000028C8388048B48F6FF752C404FF6FF45E1
:101040002C400D884FF6FF7606EA05252C434FF617
:10105000DF752A400D8906EA05152A434D8806EA00
:1010600005152A43444DA84202D0494DA8421DD13E
:101070004FF67F752A404D894FF6FF7606EA051533
:101080002A434FF6BF752A408D8806EA05152A4384
:101090004FF6FF352B404FF2FF752B408D8906EA46
:1010A00085052B43CD8906EA85052B438380048380
:1010B000CD880587028470BD70B50024002200230E
:1010C000058C4FF6FF6635400584028C8388848B3F
:1010D0004FF68F752C404FF6FC752C400D882C4335
:1010E0004FF6FF552A400D894FF6FF7606EA052593
:1010F0002A434D8806EA05252A431F4DA84202D0FF
:10110000234DA8421DD14FF2FF752A404D894FF65D
:10111000FF7606EA05252A434FF6FF352A408D88DB
:1011200006EA05252A434EF6FF752B404DF6FF755E
:101130002B408D8906EA05152B43CD8906EA051556
:101140002B4383808483CD888587028470BD70B5EE
:10115000002200230024058C4EF6FF7635400584DE
:10116000038C8488828B48F6FF752A404FF6FF4532
:101170002A400D8820E00000002C014000040040BF
:1011800000080040000C0040001000400014004027
:1011900000340140004C0140005001400054014027
:1011A00000180040001C00400020004000400140AA
:1011B00000440140004801404FF6FF7606EA05254D
:1011C0002A434DF6FF752B400D8906EA05352B4362
:1011D0004D8806EA05352B43FA4DA84202D0FA4D58
:1011E000A84208D14BF6FF752C408D894FF6FF764B
:1011F00006EA85152C4384808283CD88A0F8405070
:10120000038470BD828B4FF2FF331A408283828B3E
:101210004FF6FF7303EA01231A4382837047F0B548
:101220000C461546002200210026078C4EF6FF7C56
:1012300007EA0C070784828B018C4FF6FF7707EAD9
:10124000043640F6FF473A404FF6FF7707EA052796
:101250003A434FF6FF7707EA03373A43D94FB8428C
:101260000ED0D94FB8420BD0B0F1804F08D0D74F35
:10127000B84205D0D64FB84202D0D64FB84206D1B8
:101280004DF6FF77394046F48057394305E047F67D
:10129000FF57394044F48057394382830184F0BDBD
:1012A000828B4FF6F3731A408283828B0A438283C8
:1012B0007047F0B50C461546002200210026078C29
:1012C0004FF6FF6C07EA0C070784828B018C4FF600
:1012D000FF7707EA04264FF60C773A404FF6FF7780
:1012E00007EA03172F433A43B64FB8420ED0B64F22
:1012F000B8420BD0B0F1804F08D0B44FB84205D0FF
:10130000B34FB84202D0B34FB84206D14FF6FF57A1
:10131000394046F48077394305E04FF2FF573940B2
:1013200044F48077394382830184F0BD028B4FF20D
:10133000FF331A400283028B4FF6FF7303EA012347
:101340001A4302837047F0B50C461546002200216F
:101350000026078C4FF6EF7C07EA0C070784028B08
:10136000018C4FF6FF7707EA041640F6FF473A4034
:101370004FF6FF7707EA03373A434FF6FF7707EA5E
:1013800005273A438F4FB8420ED08F4FB8420BD04B
:10139000B0F1804F08D08D4FB84205D08C4FB84285
:1013A00002D08C4FB84206D14FF6DF77394046F075
:1013B0001007394305E04FF65F77394044F01007D6
:1013C000394302830184F0BD028B4FF6F3731A4058
:1013D0000283028B0A4302837047F0B50C46154620
:1013E00000220021068C4FF6FE773E400684028BD9
:1013F000018C4FF60C7632407E1C06EA03162E4313
:101400003243704EB0420ED06F4EB0420BD0B0F1AE
:10141000804F08D06D4EB04205D06D4EB04202D024
:101420006C4EB04206D14FF6FD76314044F00106D5
:10143000314305E04FF6F576314044F00106314383
:1014400002830184F0BD70B505460C465D488542B7
:101450000ED05D4885420BD0B5F1804F08D05B4877
:10146000854205D05A48854202D05A48854200D16B
:1014700000E000BF208850B92389A28861882846EF
:10148000FFF7ABFFE1882846FFF79EFF25E02088A5
:1014900004280AD12389A28861882846FFF753FFD0
:1014A000E1882846FFF742FF17E0208808280AD184
:1014B0002389A28861882846FFF7FBFEE188284639
:1014C000FFF7EEFE09E02389A28861882846FFF72E
:1014D000A6FEE1882846FFF795FE70BD2DE9F04194
:1014E00005460C4600260127608808B9022600E060
:1014F0000026A088012801D1022700E001272088CA
:10150000A0B92389A28861882846FFF766FFE18891
:101510002846FFF759FF23893A4631462846FFF708
:1015200012FFE1882846FFF701FF13E02389A28814
:1015300061882846FFF707FFE1882846FFF7F6FE97
:1015400023893A4631462846FFF747FFE188284677
:10155000FFF73AFFBDE8F0810A884B881A438B8871
:101560001A43CB881A430B891A434B891A438B8938
:101570001A43A0F8442070474FF6FF718180002184
:101580000180C1804180017270470021018041804B
:101590008180C180018141818181C18170470021A9
:1015A00001804180012181800021C180018170473B
:1015B0000021018041808180C18001814181818140
:1015C00070470000002C014000340140000400403E
:1015D00000080040000C004021B1028842F00102E6
:1015E000028004E002884FF6FE731A4002807047C2
:1015F00031B1B0F8442042F40042A0F8442005E0A4
:10160000B0F84420C2F30E02A0F8442070471AB18B
:1016100083890B43838102E083898B4383817047F5
:101620008182704741EA0203A0F8483070471AB13E
:1016300083890B43838102E083898B4383817047D5
:1016400001894FF6F8721140018170470A46002166
:1016500001894FF68F73194011430181704730B5EE
:1016600004460D4629462046FFF7F0FF208940F04A
:101670000700208130BD2DE9F04104460D46164695
:101680001F46602D06D13B46012231462046FFF71A
:101690005AFE05E03B46012231462046FFF79DFEFB
:1016A00029462046FFF7D2FF208940F0070020811D
:1016B000BDE8F08130B50C4600210189C9B24FF672
:1016C000FF7505EA0325154325432943018130BDF4
:1016D0002DE9F04105460E4617469846002443463C
:1016E0003A4631462846FFF7E5FF2C894FF6F87059
:1016F000044044F007044FF68F70044044F0700437
:101700002C81BDE8F081F0B504460D4616461F4613
:101710003B46324629462046FFF7CCFF208940F45D
:1017200080402081F0BD0185828270470A460021F9
:1017300001884FF68F731940114301807047F0B54F
:101740000C4615461E460021002200230189028B0B
:10175000038C4FF6F877394021434FF6FC473A4067
:1017600040F201173A434FF6DD773B404FF6FF77E3
:1017700007EA06172F433B43018102830384F0BD30
:101780000A460021018B4FF68F73194011430183E4
:1017900070470A460021018B48F6FF7319404FF647
:1017A000FF7303EA02231943018370470A460021AD
:1017B000818B4FF68F7319401143818370470A461E
:1017C0000021818B48F6FF7319404FF6FF7303EA3F
:1017D000022319438183704721B1028842F08002BD
:1017E000028004E002884FF67F731A40028070473F
:1017F00021B1828842F00402828004E082884FF6A0
:10180000FB731A408280704721B1828842F008023F
:10181000828004E082884FF6F7731A408280704716
:1018200021B1828842F00102828004E082884FF672
:10183000FE731A40828070470A460021018B4FF6E2
:10184000F77319401143018370470A460021018B49
:101850004FF2FF7319404FF6FF7303EA0223194357
:10186000018370470A460021818B4FF6F7731940B8
:101870001143818370470A460021818B4FF2FF7329
:1018800019404FF6FF7303EA02231943818370471F
:101890000A460021018B4FF6FB7319401143018367
:1018A00070470A460021018B4FF6FF3319404FF66F
:1018B000FF7303EA02231943018370470A4600219C
:1018C000818B4FF6FB7319401143818370470A46A1
:1018D0000021818B4FF6FF3319404FF6FF7303EA67
:1018E00002231943818370470A460021018B4FF67A
:1018F0007F7319401143018370470A460021018B11
:10190000C1F30E014FF6FF7303EA0223194301836B
:1019100070470A460021818B4FF67F7319401143AF
:10192000818370470A460021818BC1F30E014FF677
:10193000FF7303EA02231943818370470A4600219B
:10194000018C4FF6FD7319401143018470470A461C
:101950000021018C4FF6F773194011430184704741
:101960000A460021018C4FF6DF7319404FF6FF73D2
:1019700003EA02131943018470470A460021018CCF
:101980004FF67F7319404FF6FF7303EA02131943B2
:10199000018470470A460021018C4FF6FF5319401D
:1019A0004FF6FF7303EA02231943018470470A4686
:1019B0000021018C4FF2FF7319404FF6FF7303EAC9
:1019C00002231943018470470A460021018C4DF619
:1019D000FF7319404FF6FF7303EA02331943018482
:1019E000704730B5002301248C40A3B2048C9C4383
:1019F0000484048C02FA01F5ADB22C43048430BD9A
:101A000030B5002304248C40A3B2048C9C4304848E
:101A1000048C02FA01F5ADB22C43048430BD70B5DC
:101A20000346002000241846183001258D40ACB232
:101A30001D8CA5431D8409B1082909D100EB610063
:101A4000056825F0700505600568154305600EE022
:101A50000D1FC5F34E052844056825F4E0450560D3
:101A600005684FF6FF7606EA02263543056070BD2D
:101A700021B1028842F00202028004E002884FF69F
:101A8000FD731A400280704721B1028842F00402BF
:101A9000028004E002884FF6FB731A400280704710
:101AA00021B1828842F08002828004E082884FF671
:101AB0007F731A408280704702884FF6F7731A408E
:101AC000028002880A430280704782884FF68F7333
:101AD0001A40828082880A438280704702894FF6CA
:101AE000F8731A40028102890A4302817047028911
:101AF0004FF67F731A40028102890A4302817047C0
:101B0000818470478185704781867047018770475F
:101B100081877047A0F84010704702884FF6FF4356
:101B20001A40028002880A43028070470146888E6C
:101B300070470146088F70470146888F70470146FD
:101B4000B1F8400070470146888C70470146088D07
:101B5000704702460020138A0B400BB1012000E0C1
:101B600000207047CA430282704730B50246002009
:101B700000230024158A05EA0103958905EA01047A
:101B800013B10CB1012000E0002030BDCA43028235
:101B90007047000010B50446FB48844209D101217A
:101BA0008803FFF79FF800214FF48040FFF79AF871
:101BB00032E0F648844209D101214804FFF79FF83A
:101BC00000214FF40030FFF79AF825E0F0488442F6
:101BD00009D101218804FFF792F800214FF48020F9
:101BE000FFF78DF818E0EB48844209D10121C804C1
:101BF000FFF785F800214FF40020FFF780F80BE095
:101C0000E548844208D101210805FFF778F8002152
:101C10004FF48010FFF773F810BD2DE9F04786B040
:101C200005460E460024A24600BFA1460027B08903
:101C300000B100BF2F462C8A4CF6FF700440F0889C
:101C400004432C82AC894EF6F3100440B0883189ED
:101C50000843718908430443AC81AC8A4FF6FF40C6
:101C60000440B0890443AC8201A8FEF7B4FFC64823
:101C7000874202D1DDF810A001E0DDF80CA0A889B0
:101C800000F4004040B10AEBCA0000EB0A103168D2
:101C90004900B0FBF1F807E00AEBCA0000EB0A10BC
:101CA00031688900B0FBF1F86420B8FBF0F0040162
:101CB0002009642101FB1089A88900F4004040B18B
:101CC000322000EBC900B0FBF1F000F00700044344
:101CD00008E0322000EB09106421B0FBF1F000F0C5
:101CE0000F0004432C8106B0BDE8F0874FF4165175
:101CF000016000218180C18001810C21418100218E
:101D00008181704710B502460020108A4FF2FF0310
:101D100018400B884C8823438C882343CC8823436A
:101D20001843108210BD0021018041808180C18054
:101D3000704721B1828942F40052828104E0828995
:101D40004DF6FF731A4082817047F0B503460024B8
:101D500000260025002040F66A17B94200D100BFD6
:101D60001846C1F3421401F01F06012707FA06F5D1
:101D7000012C01D10C3004E0022C01D1103000E024
:101D800014301AB107682F43076002E00768AF43B9
:101D90000760F0BD1AB1838A0B43838202E0838A15
:101DA0008B4383827047028A4FF6F0731A40028297
:101DB000028A0A430282704782894FF2FF731A40F7
:101DC000828182890A438281704721B1828942F0EF
:101DD0000202828104E082894FF6FD731A408281FB
:101DE0007047028A4FF6DF731A400282028A0A4362
:101DF0000282704721B1028A42F48042028204E0EA
:101E0000028A4BF6FF731A4002827047C1F3080240
:101E10008280704701468888C0F308007047818936
:101E200041F0010181817047028BD2B20283028BA3
:101E300042EA012202837047028B02F47F4202834E
:101E4000028B0A430283704721B1828A42F020024A
:101E5000828204E0828A4FF6DF731A4082827047E2
:101E600021B1828A42F01002828204E0828A4FF617
:101E7000EF731A408282704721B1828A42F00802D1
:101E8000828204E0828A4FF6F7731A40828270479A
:101E900021B1828942F40042828103E08289C2F347
:101EA0000E028281704721B1828A42F400628282EE
:101EB00004E0828A4FF2FF731A4082827047828A5E
:101EC0004FF6FB731A408282828A0A4382827047ED
:101ED00021B1828A42F00202828204E0828A4FF6B5
:101EE000FD731A408282704702460020B1F5007FE0
:101EF00000D100BF13880B400BB1012000E000208F
:101F0000704701F40072B2F5007F00D100BFCA43F0
:101F10000280704770B5024600240023002500208F
:101F200040F66A16B14200D100BFC1F3421501F07C
:101F30001F03012606FA03F3012D02D196893340CF
:101F400006E0022D02D1168A334001E0968A334022
:101F50000C12012606FA04F41688344013B10CB1B1
:101F6000012000E0002070BD10B50022002340F6E3
:101F70006A14A14200D100BF0A1201249440A3B206
:101F8000DC43048010BD00000038014000440040E4
:101F900000480040004C00400050004000F098FC19
:101FA00000F0CCFC00F08CFB00F03EFD00F004FDE6
:101FB00000F0D8FD00F0EFFD00F006FE4FF4FA70DF
:101FC00000F0BBFB0121FD4800F037FC0121FB487C
:101FD00001F0BDFEF94801F090FB0121F74802F045
:101FE00024F80021F64800F028FC0021F44801F014
:101FF000AEFEF34801F081FB0021F14802F015F834
:102000000221F04800F019FC0221EE4801F09FFE89
:10201000EC4801F072FB0221EA4802F006F8CEE239
:10202000E948007812280AD2DFE800F0090A09FD21
:10203000FCFBA8FA09090909090909F9F8F7BDE241
:102040000021DF4801F0C1FEDD4804F04DF9012117
:10205000DA4801F0BAFED94804F046F9D749886F4A
:10206000DA4904F0F5FD24D8D449886FD84904F042
:10207000E5FD1ED2D249886FD44904F0E9FD18D895
:10208000CF49886FD24904F0D9FD12D2D1480078E7
:10209000012803D0D0480078012805D1032004F09E
:1020A000C5F9142000F049FB0020CA490870CA494C
:1020B0000870C249886FC64904F0CAFD05D8BF49F7
:1020C000886FC64904F0BAFD0BD9BD49886FC04975
:1020D00004F0BEFD12D8BA49886FC04904F0AEFDC5
:1020E0000CD8BD48007828B9042004F09FF91420CA
:1020F00000F023FB0120B84908700CE0B6480078D6
:10210000012805D1052004F091F9142000F015FBF9
:102110000020B1490870A949886FB14904F098FDC1
:1021200011D9A749886FAE4904F092FD0BD9A34994
:10213000886FA64904F082FD05D3A149886FA349A1
:1021400004F07CFD0CD2A348007828B9062004F0E6
:102150006DF9142000F0F1FA01209E4908700CE09E
:102160009C480078012805D1072004F05FF914206D
:1021700000F0E3FA0020974908701FE20021904820
:1021800001F023FE8E4804F0AFF801218B4801F0E6
:102190001CFE8A4804F0A8F88849886F8B4904F02F
:1021A00057FD24D88549886F894904F047FD1ED220
:1021B0008349886F854904F04BFD18D88049886FA2
:1021C000834904F03BFD12D282480078012803D0F5
:1021D00081480078012805D1032004F027F9142054
:1021E00000F0ABFA00207B4908707B490870734906
:1021F000886F774904F02CFD05D87049886F7749BE
:1022000004F01CFD13D96E49886F714904F020FD5C
:102210001AD86B49886F714906E0AFE18FE16FE131
:1022200052E02DE1F7E09BE004F008FD0CD86A488D
:10223000007828B9042004F0F9F8142000F07DFAA1
:102240000120654908700CE063480078012805D139
:10225000052004F0EBF8142000F06FFA00205E492E
:1022600008705649886F5E4904F0F2FC11D9544950
:10227000886F5B4904F0ECFC0BD95049886F5349D7
:1022800004F0DCFC05D34E49886F504904F0D6FCBD
:102290000CD25048007828B9062004F0C7F8142062
:1022A00000F04BFA01204B4908700CE049480078D7
:1022B000012805D1072004F0B9F8142000F03DFAF8
:1022C00000204449087079E100213D4801F07DFD7E
:1022D0003B4804F009F80121384801F076FD374801
:1022E00004F002F83549886F002104F0B1FC25D8CC
:1022F0003249886F3B4904F0A1FC1FD83049886FF0
:10230000002104F0A5FC19D82D49886F354904F047
:1023100095FC13D82F480078012803D02E48007868
:10232000012805D1032004F081F8142000F005FAFB
:102330000020284908702849087010E025480078D6
:1023400010B12548007828B9082004F06FF814204F
:1023500000F0F3F901201F4908701F4908702DE1B2
:102360000021174801F031FD154803F0BDFF0121A0
:10237000124801F02AFD114803F0B6FF0F49886F9B
:10238000194904F05BFC33D80D49886F164904F0F5
:1023900055FC2DD81548007801280BD1092004F0F0
:1023A00045F8142000F0C9F9092004F03FF8142082
:1023B00000F0C3F900200D4908702BE04401002013
:1023C00090000020F801002028000020000050416B
:1023D00000000C423A0000203B0000200000484270
:1023E0000000304200007041000004423C00002028
:1023F0007348007858B90A2004F018F8142000F047
:102400009CF90A2004F012F8142000F096F901203B
:102410006B490870D2E001216A4801F0D6FC694896
:1024200003F062FF6749D1F8800004F0ABFB664916
:102430000968401A28280BDD6448007840B901205B
:10244000624908700B2003F0F1FF142000F075F9C9
:102450005C49D1F8800004F095FB5B490968081AD3
:1024600028280CDD59480078012808D10020574958
:1024700008700C2003F0DAFF142000F05EF99DE0F4
:102480000021534801F0A1FC514803F02DFF012128
:102490004C4801F09AFC4B4803F026FF4C49C86FAA
:1024A000002104F0D5FB11D24949C86F494904F015
:1024B000C5FB0BD24848007840B901204649087056
:1024C0000D2003F0B3FF142000F037F93D49C86F29
:1024D000424904F0BDFB12D23A49C86F002104F012
:1024E000ADFB0CD23C480078012808D100203A49C5
:1024F00008700D2003F09AFF142000F01EF95DE033
:102500000021334801F061FC314803F0EDFE012168
:102510002C4801F05AFC2B4803F0E6FE022130481B
:1025200001F053FC2E4803F0DFFE2E480078C82847
:1025300004DD00202B49087003F08BFF3EE00021F2
:10254000234801F042FC224803F0CEFE01211D4841
:1025500001F03BFC1B4803F0C7FE0221204801F0BC
:1025600034FC1F4803F0C0FE1E480078C82804DD74
:1025700000201C49087003F06CFF1FE00021144884
:1025800001F023FC124803F0AFFE01210D4801F0D9
:102590001CFC0C4803F0A8FE0D49D1F8800004F0A3
:1025A000F1FA114908600749D1F8800004F0EAFA0D
:1025B0000549086000200D49087000BF00BF2FE5E5
:1025C0003C0000204401002034000020380000209E
:1025D000900000200000D242390000200000BEC25E
:1025E000F80100203D0000203000002028000020DD
:1025F000704700BFFEE700BFFEE700BFFEE700BF79
:10260000FEE770477047704729480078401C28490A
:102610000870704710B540F225512648FFF77AFC44
:10262000002844D02348FFF7F5FBC4B222480078C5
:10263000002837D0002020490870A4F130000A2873
:102640002ED2DFE800F005090D1115191D212529ED
:1026500000201A49087024E001201849087020E081
:102660000620164908701CE007201449087018E07D
:1026700003201249087014E004201049087010E08B
:1026800005200E4908700CE00F200C49087008E086
:1026900010200A49087004E011200849087000E081
:1026A00000BF00BF6D2C02D101200349087010BD8E
:1026B0003D000020003801403E000020280000209E
:1026C00010B56FF00400FDF78EFE2E4800682E490D
:1026D000B0FBF1F02D4908700846007800EB40018E
:1026E000C1EBC0104FF6FF7101EAC0002849088015
:1026F00010BD0146254A12784A434FF0E0235A6143
:1027000000229A611A46126942F001021A6100BF62
:102710004FF0E022106900F001021AB100F480329B
:10272000002AF5D04FF0E022126922F001024FF0AA
:10273000E0231A6100229A6170470146144A128808
:102740004A434FF0E0235A6100229A611A46126907
:1027500042F001021A6100BF4FF0E022106900F060
:1027600001021AB100F48032002AF5D04FF0E022C5
:10277000126922F001024FF0E0231A6100229A61EF
:10278000704770470000002000127A0040000020CF
:102790004200002070B504460D46E006020E2B46AE
:1027A0001B21682000F00EFF70BD70B504460D4679
:1027B000E006020E2B461C21682000F003FF70BDCE
:1027C00070B504460D460026B82C01DB012610E04A
:1027D0005C2C01DB02260CE0292C01DB032608E03F
:1027E000142C01DB042604E00A2C01DB052600E0A2
:1027F00006262B4632461A21682000F0E3FE70BD03
:1028000070B504460D46B4F57A7F01DD4FF47A7455
:10281000042C00DA04244FF47A7090FBF4F0401E8C
:10282000C6B22B4632461921682000F0CBFE064680
:1028300029463220FFF7C4FF70BD70B505460C462F
:10284000234680226B21682000F0BCFE6420FFF745
:1028500074FF234600226B21682000F0B3FE21465E
:102860000120FFF797FF21460120FFF79EFF214639
:102870004FF47A70FFF7C4FF234600223821682006
:1028800000F0A0FE234600226A21682000F09AFE94
:10289000234600222321682000F094FE2346802254
:1028A0003721682000F08EFE234601226B2168202C
:1028B00000F088FE234600226C21682000F082FE92
:1028C0002146284603F016FD204603F07FFD70BD2B
:1028D00030B5334800684FF47A72B0FBF2F1B1F1D1
:1028E000807F01D301201DE021F07F40401E4FF08A
:1028F000E022506150170F22002807DA13071D0E3F
:10290000284B00F00F04241F1D5503E013071C0E75
:10291000254B1C5400BF00204FF0E022906107209F
:102920001061002008B100BFFEE74FF0E020006911
:1029300040F001004FF0E021086130BD0EB50121EB
:102940000420FEF7C2F94FF6FF70ADF804004720EF
:10295000ADF800000020ADF80600ADF802006946B1
:102960001248FEF7DDFA01211048FEF735FE0EBDD4
:1029700070B500240D48243000880D4908600020FF
:102980000A49243108800A48006804F0F6F8054630
:10299000084903F023FF0446204670BD704700003D
:1029A0000000002018ED00E000E400E00008004016
:1029B000700000200024F44900B58BB001210846C6
:1029C000FEF769F963480090634801901020029077
:1029D000082003900020049080200590002006909D
:1029E000079008904FF48050099000200A906946A3
:1029F0005A48FDF7B9FD01215848FDF7E0FD0BB03D
:102A000000BD08B54FF4E060FDF79EFC25208DF871
:102A1000000001208DF801008DF802008DF8030000
:102A20006846FDF796FC08BD00B585B00121880316
:102A3000FEF73EF901210420FEF73AF94FF4007049
:102A4000ADF8100018208DF8130003208DF8120047
:102A500004A94348FDF770FE4FF48060ADF8100004
:102A600004208DF8130004A93D48FDF765FE4FF4DE
:102A7000E13000900020ADF80400ADF80600ADF89C
:102A80000800ADF80C000C20ADF80A00694631488A
:102A9000001FFFF7C2F8FFF7B4FF012240F22551F3
:102AA0002C48001FFFF751F901212A48001FFFF7AA
:102AB00040F905B000BD70B504460D46E1B22548A9
:102AC000001FFFF7A3F900BF80212248001FFFF776
:102AD0000BFA0028F8D0204670BD10B5044600BFA0
:102AE00020211C48001FFFF7FFF90028F8D01948E3
:102AF000001FFFF78FF910BD70B504460D4629463B
:102B00002046FFF783F900BF80212046FFF7ECF94C
:102B10000028F9D070BD2DE9F04107460D46164654
:102B2000002400BF295D3846FFF7E6FF641CB4426D
:102B3000F8D3BDE8F08170B506460C46002500BF0D
:102B4000615D3046FFF7D8FF6D1C605D0028F7D14E
:102B500070BD0000043801407400002044000240B1
:102B60000008014008B501210802FEF7A1F8C020C5
:102B7000ADF8000010208DF8030003208DF802004E
:102B80006946FE48FDF7D8FD0120FD490860FD4972
:102B9000C1F8980108BD08B501214020FEF788F86A
:102BA0000C20ADF8000010208DF8030003208DF8F4
:102BB00002006946F448FDF7BFFD0120F3490860B3
:102BC000F349C1F8880108BD08B501211020FEF7BE
:102BD0006FF84FF44060ADF8000010208DF803004E
:102BE00003208DF802006946EA48FDF7A5FD0120A3
:102BF000E9490860E949C1F8A80108BD10B5DF48F6
:102C0000006820F07060DD4908600846006840F008
:102C1000407008600120DA49091F0860D949C1F8ED
:102C20009C010420FFF765FD0020D549091F0860BD
:102C30000420FFF75EFD0020D249C1F89C0110BDC1
:102C400010B5D148006820F47060CF49086008468C
:102C5000006840F4407008600120CC49091F0860FA
:102C6000CB49C1F88C010420FFF743FD0020C74980
:102C7000091F08600420FFF73CFD0020C449C1F88B
:102C80008C0110BD10B5C348406820F47060C14984
:102C900048600846406840F4407048600120BE49E2
:102CA000091F0860BD49C1F8AC010420FFF721FDF0
:102CB0000020B949091F08600420FFF71AFD002011
:102CC000B649C1F8AC0110BD10B5AC48006820F0A1
:102CD0007060AA4908600846006840F040700860CB
:102CE0000020A7490860A749C1F898010420FFF710
:102CF00000FD0120A2490860A249C1F89801042002
:102D0000FFF7F7FC10BD10B59F48006820F4706015
:102D10009D4908600846006840F440700860002043
:102D20009A4908609A49C1F888010420FFF7E1FC3C
:102D30000120964908609649C1F888010420FFF7F0
:102D4000D8FC10BD10B59348406820F470609149DC
:102D500048600846406840F44070486000208E4952
:102D600008608E49C1F8A8010420FFF7C2FC0120C9
:102D7000894908608949C1F8A8010420FFF7B9FC16
:102D800010BD10B500247D48006820F070607B49BC
:102D900008600846006840F000600860012078493B
:102DA000091F0860FFF7A5FC01207649C1F89C01C6
:102DB000FFF79FFC07E0601CC4B2FA2C03DDFFF7AD
:102DC00083FF012010BD6E48843800680028F2D1CE
:102DD0006B49086000BFF5E710B500246A48006839
:102DE00020F47060684908600846006840F400609C
:102DF000086001206549091F0860FFF77AFC01207F
:102E00006349C1F88C01FFF774FC07E0601CC4B291
:102E1000FA2C03DDFFF777FF012010BD5B488438F3
:102E200000680028F2D15949086000BFF5E710B5E5
:102E300000245848406820F47060564948600846AD
:102E4000406840F40060486001205349091F086051
:102E5000FFF74FFC01205149C1F8AC01FFF749FCD5
:102E600007E0601CC4B2FA2C03DDFFF76BFF012002
:102E700010BD4948843800680028F2D146490860EE
:102E800000BFF5E710B500203D4908603B480068E9
:102E900020F07060394908600846006840F04070D2
:102EA000086000203749C1F898010220FFF721FC93
:102EB0000120334908600220FFF71BFC0020314944
:102EC000C1F89C0110BD10B50020304908602E48A3
:102ED000006820F470602C4908600846006840F4DF
:102EE0004070086000202A49C1F888010220FFF7DD
:102EF00000FC0120254908600220FFF7FAFB0020B2
:102F00002349C1F88C0110BD10B50020224908608A
:102F10002048406820F470601E49486008464068B8
:102F200040F44070486000201C49C1F8A80102200C
:102F3000FFF7DFFB0120184908600220FFF7D9FBEB
:102F400000201649C1F8AC0110BD10B500200C4995
:102F500008600A48006820F0706008490860084668
:102F6000006840F04070086001200649C1F89801EF
:102F70000220FFF7BEFB0120014911E000200140C3
:102F80009C01244200002442001801408C0123428D
:102F90000000234200100140AC0122420000224206
:102FA00008600220FFF7A5FB0020F849C1F89C014A
:102FB00010BD10B50020F6490860F648006820F4FE
:102FC0007060F44908600846006840F4407008608A
:102FD0000120F149C1F888010220FFF78AFB012096
:102FE000EB4908600220FFF784FB0020EA49C1F8A2
:102FF0008C0110BD10B50020E8490860E848406821
:1030000020F47060E64948600846406840F440702B
:1030100048600120E349C1F8A8010220FFF769FBDD
:103020000120DE4908600220FFF763FB0020DD4934
:10303000C1F8AC0110BD70B50446DB48006820F053
:103040007060D94908600846006840F04070086028
:103050000020D6490860002517E0E009D349091F80
:1030600008606006040E0220FFF743FB0120C749F9
:10307000C1F89C010220FFF73CFB0020CB4908600F
:103080000220FFF736FB681CC5B2082DE5DB70BDDA
:1030900070B50446BF48006820F47060BD49086000
:1030A0000846006840F4407008600020B849086095
:1030B000002517E0E009B649091F08606006040E04
:1030C0000220FFF716FB0120B349C1F88C01022052
:1030D000FFF70FFB0020AE4908600220FFF709FB55
:1030E000681CC5B2082DE5DB70BD70B50446AC4860
:1030F000406820F47060AA4948600846406840F47F
:10310000407048600020A5490860002517E0E009EC
:10311000A249091F08606006040E0220FFF7E9FAC1
:103120000120A049C1F8AC010220FFF7E2FA00201B
:103130009A4908600220FFF7DCFA681CC5B2082D26
:10314000E5DB70BD70B5064600249748006820F0A6
:103150007060954908600846006840F000600860AB
:10316000002516E00020914908600220FFF7C1FA0F
:1031700001208649C1F89C016006040E8B48843802
:10318000006808B1601CC4B20120FFF7B2FA681CE5
:10319000C5B2082DE6DB204670BD70B5064600249A
:1031A0007C48006820F470607A490860084600682E
:1031B00040F400600860002516E0002074490860B3
:1031C0000220FFF796FA01207349C1F88C016006CE
:1031D000040E6F488438006808B1601CC4B2012036
:1031E000FFF787FA681CC5B2082DE6DB204670BDE4
:1031F00070B5064600246A48406820F4706068494B
:1032000048600846406840F400604860002516E0C9
:103210000020624908600220FFF76BFA0120614933
:10322000C1F8AC016006040E5C488438006808B13F
:10323000601CC4B20120FFF75CFA681CC5B2082DFF
:10324000E6DB204670BD2DE9F04105460F461446E9
:103250001E46FFF7D3FC002141EA4501C8B2FFF743
:10326000EAFEFFF78EFD20B1FFF72EFD0020BDE83E
:10327000F0813846FFF7DFFEFFF783FDFFF7BEFC66
:10328000012101EB4501C8B2FFF7D5FEFFF779FD3B
:103290000DE00120FFF756FF3070012C02D1FFF73F
:1032A00054FE01E0FFF7EEFD761C601EC4B2002C58
:1032B000EFD1FFF709FD0120D9E72DE9F0410546DF
:1032C0000F4614461E46FFF7BBFC002141EA4501AC
:1032D000C8B2FFF7DDFEFFF77FFD20B1FFF713FD5A
:1032E0000020BDE8F0813846FFF7D2FEFFF774FDFD
:1032F000FFF7A6FC012101EB4501C8B2FFF7C8FEAC
:10330000FFF76AFD0DE00120FFF747FF3070012C49
:1033100002D1FFF74EFE01E0FFF7D5FD761C601EDF
:10332000C4B2002CEFD1FFF7EEFC0120D9E72DE964
:10333000F04105460F4614461E46FFF7A3FC002148
:1033400041EA4501C8B2FFF7D0FEFFF770FD20B19A
:10335000FFF7F8FC0020BDE8F0813846FFF7C5FE16
:10336000FFF765FDFFF78EFC012101EB4501C8B2B7
:10337000FFF7BBFEFFF75BFD1FE00120FFF738FF03
:103380003070012C14D1FFF735FE13E00000244209
:103390008C0123420018014000002342AC0122426C
:1033A0000010014000002242002001409C01244204
:1033B000FFF7AAFD761C601EC4B2002CDDD1FFF71A
:1033C000C1FC0120C7E72DE9F04105460E4617462E
:1033D0009846FFF713FC002141EA4501C8B2FFF708
:1033E0002AFEFFF7CEFC20B1FFF76EFC0020BDE8FF
:1033F000F0813046FFF71FFEFFF7C3FC00240BE00F
:1034000018F80400FFF717FEFFF7BBFC18B1FFF731
:103410005BFC0020EBE7641CBC42F1DBFFF754FCD3
:103420000120E4E72DE9F04105460E46174698468F
:10343000FFF706FC002141EA4501C8B2FFF728FE6C
:10344000FFF7CAFC20B1FFF75EFC0020BDE8F08169
:103450003046FFF71DFEFFF7BFFC00240BE018F815
:103460000400FFF715FEFFF7B7FC18B1FFF74BFCA0
:103470000020EBE7641CBC42F1DBFFF744FC0120B9
:10348000E4E72DE9F04105460E4617469846FFF75A
:10349000F9FB002141EA4501C8B2FFF726FEFFF71C
:1034A000C6FC20B1FFF74EFC0020BDE8F08130469D
:1034B000FFF71BFEFFF7BBFC00240BE018F804002D
:1034C000FFF713FEFFF7B3FC18B1FFF73BFC00203A
:1034D000EBE7641CBC42F1DBFFF734FC0120E4E7BE
:1034E00070B504460D461646FFF788FB002141EAF9
:1034F0004401C8B2FFF79FFDFFF743FC18B1FFF787
:10350000E3FB002070BD2846FFF795FDFFF739FC6F
:103510003046FFF790FDFFF734FC18B1FFF7D4FBFE
:103520000020EFE7FFF7D0FB0120EBE770B5044682
:103530000D461646FFF784FB002141EA4401C8B25C
:10354000FFF7A6FDFFF748FC18B1FFF7DCFB0020F2
:1035500070BD2846FFF79CFDFFF73EFC3046FFF7A5
:1035600097FDFFF739FC18B1FFF7CDFB0020EFE71F
:10357000FFF7C9FB0120EBE770B504460D46164680
:10358000FFF780FB002141EA4401C8B2FFF7ADFD1F
:10359000FFF74DFC18B1FFF7D5FB002070BD2846A2
:1035A000FFF7A3FDFFF743FC3046FFF79EFDFFF753
:1035B0003EFC18B1FFF7C6FB0020EFE7FFF7C2FBA8
:1035C0000120EBE72DE9F04105460E4617461C4663
:1035D00024B1012C08D0022C12D10BE03A4631461E
:1035E0002846FFF7A3FF0CE03A4631462846FFF78E
:1035F00077FF06E03A4631462846FFF7BDFF00E078
:1036000000BF00BFBDE8F0812DE9F04104460D4642
:1036100016461F46DDF81880B8F1000F06D0B8F145
:10362000010F0FD0B8F1020F22D116E03B4632460F
:1036300029462046FFF7F6FE10B10020BDE8F081D4
:10364000FF20FBE73B46324629462046FFF7BBFEFC
:1036500008B10020F2E7FF20F0E73B46324629465A
:103660002046FFF70EFF08B10020E7E7FF20E5E75F
:1036700000BF00BF00BFE1E72DE9F04104460D4661
:1036800016461F46DDF81880B8F1000F06D0B8F1D5
:10369000010F0FD0B8F1020F22D116E03B4632469F
:1036A00029462046FFF709FE10B10020BDE8F08151
:1036B000FF20FBE73B46324629462046FFF7C3FD85
:1036C00008B10020F2E7FF20F0E73B4632462946EA
:1036D0002046FFF72CFE08B10020E7E7FF20E5E7D2
:1036E00000BF00BF00BFE1E701B502E00098401E47
:1036F000009000980028F9D108BD01B58AB00A9859
:10370000D0F8900007900A98D0F88C00069007999E
:1037100003F02CF809900A98D0F8880007900A98CE
:10372000D0F884000690079903F020F808900999D2
:1037300003F08EFA7DD80A98D0F8980007900A987E
:10374000D0F894000690079903F010F809900A98B1
:10375000D0F8880007900A98D0F88400069007995E
:1037600003F004F80890099903F072FAE2D84FF0D8
:103770007E510A98C0F89C100A98D0F890000790E3
:103780000A98D0F88C000690079902F0EFFF099094
:103790000A98D0F8880007900A98D0F8840006901C
:1037A000079902F0E3FF0890099903F017F80A99C6
:1037B000C1F8A0000A98D0F8980007900A98D0F8AD
:1037C00094000690079902F0D1FF09900A98D0F86A
:1037D000880007900A98D0F884000690079902F0B4
:1037E000C5FF0890099902F0F9FF0A99C1F8A400F1
:1037F0000A98D0F8880004900A98D0F884000390C2
:10380000049902F061FF059003F0E9F90022FE4BF4
:10381000CDE9060103F0C7F8CDE9080103F0F2F99C
:103820000A99C1F8A8000A98D0F8900002900A9866
:1038300000E04CE0D0F88C000190029902F044FFC7
:10384000039003F0CCF9CDE906010A98D0F8A00066
:10385000019003F0C4F90022EB4BCDE9020103F023
:10386000A2F8CDE90401DDE9062303F09CF8CDE9D7
:10387000080103F0C7F90A99C1F8AC000A98D0F81A
:10388000980002900A98D0F894000190029902F0F2
:103890001BFF039003F0A3F9CDE906010A98D0F8C5
:1038A000A400019003F09BF90022D74BCDE902015F
:1038B00003F079F8CDE90401DDE9062303F073F89C
:1038C000CDE9080103F09EF90A99C1F8B0000A9801
:1038D000D0F8880007900A98D0F8840006900799DD
:1038E00002F044FF09900A98D0F8900007900A98D7
:1038F000D0F88C000690079902F038FF08900999DB
:1039000003F0A6F97DD20A98D0F8980007900A989B
:10391000D0F894000690079902F028FF09900A98C1
:10392000D0F8900007900A98D0F88C00069007997C
:1039300002F01CFF0890099903F08AF961D80A98EF
:10394000D0F8880007900A98D0F88400069007996C
:1039500002F00CFF09900A98D0F8900007900A989E
:10396000D0F88C000690079902F000FF08900999A2
:1039700002F034FF0A99C1F89C004FF07E510A987A
:10398000C0F8A0100A98D0F8980007900A98D0F8CC
:1039900094000690079902F0E9FE09900A98D0F881
:1039A000900007900A98D0F88C000690079902F0D2
:1039B000DDFE0890099902F011FF0A99C1F8A400F0
:1039C0000A98D0F8880002900A98D0F884000190F4
:1039D000029902F079FE039003F001F9CDE90601A6
:1039E0000A98D0F89C00019003F0F9F80022864B69
:1039F000CDE9020102F0D7FFCDE90401DDE906239C
:103A000000E04CE002F0CFFFCDE9080103F0FAF846
:103A10000A99C1F8A8000A98D0F8900004900A9872
:103A2000D0F88C000390049902F04EFE059003F04C
:103A3000D6F80022744BCDE9060102F0B4FFCDE9BF
:103A4000080103F0DFF80A99C1F8AC000A98D0F831
:103A5000980002900A98D0F894000190029902F020
:103A600033FE039003F0BBF8CDE906010A98D0F8C5
:103A7000A400019003F0B3F80022634BCDE90201EA
:103A800002F091FFCDE90401DDE9062302F08BFF8E
:103A9000CDE9080103F0B6F80A99C1F8B0000A9818
:103AA000D0F8880007900A98D0F88400069007990B
:103AB00002F05CFE09900A98D0F8980007900A98E6
:103AC000D0F894000690079902F050FE08900999EA
:103AD00003F0BEF87DD20A98D0F8900007900A98BB
:103AE000D0F88C000690079902F040FE09900A98E1
:103AF000D0F8980007900A98D0F89400069007999B
:103B000002F034FE0890099903F0A2F8E2D20A9874
:103B1000D0F8880007900A98D0F88400069007999A
:103B200002F024FE09900A98D0F8980007900A98AD
:103B3000D0F894000690079902F018FE08900999B1
:103B400002F04CFE0A99C1F89C000A98D0F8900047
:103B500007900A98D0F88C000690079902F006FEAC
:103B600009900A98D0F8980007900A98D0F8940025
:103B70000690079902F0FAFD0890099902F02EFECE
:103B80000A99C1F8A0004FF07E510A98C0F8A4101D
:103B90000A98D0F8880002900A98D0F88400019022
:103BA000029902F091FD039003F019F8CDE90601A6
:103BB0000A98D0F89C00019003F011F80022124BF3
:103BC000CDE9020102F0EFFECDE90401DDE90623B3
:103BD00000E04FE002F0E7FECDE9080103F012F843
:103BE0000A99C1F8A8000A98D0F8900002900A98A3
:103BF000D0F88C000190029902F066FD039002F06B
:103C0000EEFFCDE9060101E00000E0BF0A98D0F820
:103C1000A000019002F0E3FF0022FE4BCDE902017B
:103C200002F0C1FECDE90401DDE9062302F0BBFE8E
:103C3000CDE9080102F0E6FF0A99C1F8AC000A9844
:103C4000D0F8980004900A98D0F894000390049952
:103C500002F03AFD059002F0C2FF0022ED4BCDE9E3
:103C6000060102F0A0FECDE9080102F0CBFF0A999F
:103C7000C1F8B0000BB000BD30B587B004460D46AA
:103C800000208DF81200012002900DF11203012294
:103C900002210C200095FFF7EFFC9DF8120001288F
:103CA00053D103AB062203210C200095FFF7E4FC5F
:103CB0009DF80C009DF80D1040EA012000B2ADF80F
:103CC00014009DF80E009DF80F1040EA012000B28C
:103CD000ADF816009DF810009DF8111040EA012083
:103CE00000B2ADF81800BDF914004FF48F714843CD
:103CF000001200B2ADF81400BDF9160000EBC000D0
:103D000040F3D70000B2ADF81600BDF918004FF42B
:103D100096714843001200B2ADF81800BDF91600C4
:103D200002F022FFA062BDF9140002F01DFFE06264
:103D3000BDF91810484202F017FF206302AB0122C0
:103D40000A210C200095FFF75FFC07B030BD70B56D
:103D500004460D4629462046FFF78EFFD4F884100E
:103D6000A06A02F075FF02D2A06AC4F88400D4F8F9
:103D70008810A06A02F062FF02D2A06AC4F888002C
:103D8000D4F88C10E06A02F063FF02D2E06AC4F853
:103D90008C00D4F89010E06A02F050FF02D2E06A82
:103DA000C4F89000D4F89410206B02F051FF02D2B6
:103DB000206BC4F89400D4F89810206B02F03EFFFA
:103DC00002D2206BC4F8980070BD2DE9F04F8DB081
:103DD0000446894601AB0E223B216820CDF80090B5
:103DE000FFF74AFC00287CD19DF805009DF80410DF
:103DF00040EA012000B2ADF824009DF807009DF8CC
:103E0000061040EA012000B2ADF826009DF8090036
:103E10009DF8081040EA012000B2ADF828009DF896
:103E20000D009DF80C1040EA012000B2ADF82C0006
:103E30009DF80F009DF80E1040EA012000B2ADF889
:103E40002E009DF811009DF8101040EA012000B2EC
:103E5000ADF83000BDF92410A1F1820002F084FE1B
:103E60002061BDF9261001F1600002F07DFE606165
:103E7000BDF9281001F5E67002F076FEA061BDF9EB
:103E80002C0002F071FE8346616B02F06FFC8246EB
:103E900002F0A5FE0746604A604B02F084FD05462D
:103EA00002F0B0FEE061BDF92E0002F05DFE834637
:103EB000A16B02F05BFC824602F091FE0746564A77
:103EC000564B02F070FD054602F09CFE2062BDF9E3
:103ED000300002F049FE8346E16B02F047FC824667
:103EE00000E091E002F07BFE05464B4A4B4B02F0AE
:103EF0005AFD074602F086FE606200208DF81A0027
:103F000001208DF80A000DF11A03012202210C2074
:103F1000CDF80090FFF7B0FB9DF81A00012873D18F
:103F200005AB062203210C20CDF80090FFF7A4FB7F
:103F30009DF814009DF8151040EA012000B2ADF87C
:103F40001C009DF816009DF8171040EA012000B2F1
:103F5000ADF81E009DF818009DF8191040EA0120E8
:103F600000B2ADF82000BDF91C004FF48F7148433A
:103F7000001200B2ADF81C00BDF91E0000EBC0003D
:103F800040F3D70000B2ADF81E00BDF920004FF499
:103F900096714843001200B2ADF82000BDF91E0032
:103FA00002F0E2FD064654F89C1F02F0E5FB0546D0
:103FB000E16802F089FB44F8740CBDF91C0002F0C2
:103FC000D3FD0646616802F0D7FB0546216902F081
:103FD0007BFB44F8700CBDF92010484202F0C4FD90
:103FE0000646A16802F0C8FB0546616902F06CFB59
:103FF00044F86C0C9C3C0DF10A0301220A210C20B0
:10400000CDF80090FFF700FB49462046FFF79FFEE2
:10401000204605E00000E0BFD508FD4CBD6E313FF5
:10402000FFF76BFB0DB0BDE8F08F03B5A5B0269888
:1040300019AB06223B2100906820FFF71DFB0028EA
:104040007ED19DF865009DF8641040EA0120823819
:1040500000B2ADF888009DF867009DF8661040EA50
:104060000120603000B2ADF88A009DF869009DF82B
:10407000681040EA012000F5E67000B2ADF88C004F
:10408000BDF98800169002F06FFD4FF08C4117903B
:1040900002F0A4FB25990861BDF98A00169002F090
:1040A00063FD4FF08C41179002F098FB2599486111
:1040B000BDF98C00169002F057FD4FF08C4117901F
:1040C00002F08CFB2599886100208DF87200012098
:1040D0008DF86A0026980DF16A0301220A210090EA
:1040E0000C20FFF791FA0A20FEF727FB26980DF126
:1040F00072030122022100900C20FFF7BDFA9DF807
:10410000720001287ED126981BAB06220321009065
:104110000C20FFF7B1FA9DF86C009DF86D1040EA95
:10412000012000B2ADF880009DF86E009DF86F1080
:1041300040EA012000B2ADF882009DF8700000E076
:104140008BE39DF8711040EA012000B2ADF88400C5
:10415000BDF980004FF48F714843001200B2ADF8F2
:104160008000BDF9820000EBC00040F3D70000B230
:10417000ADF88200BDF984004FF4967148430012F7
:1041800000B2ADF88400BDF98200159002F0ECFC9D
:1041900016902598D0F89C0001461590169802F0CC
:1041A000EBFA17902598D0F8A800014616901798BA
:1041B00002F08AFA25998862BDF98000159002F014
:1041C000D3FC16902598D0F8A000014615901698BB
:1041D00002F0D2FA17902598D0F8AC00014616905C
:1041E000179802F071FA2599C862BDF9840040421F
:1041F000159002F0B9FC16902598D0F8A40001465D
:10420000159000E016E0169802F0B6FA179025987F
:10421000D0F8B00001461690179802F055FA25998B
:10422000086326980DF16A0301220A2100900C20F0
:10423000FFF7EAF925988069119002F0D0FCCDE9EA
:10424000140125980069119002F0C9FCCDE9120112
:10425000DDE9142304F018F981F00041CDE91601DD
:1042600002F0D0FC1D9025984069139002F0B7FC35
:10427000CDE9140103F0C0FECDE9160102F0C2FC45
:104280001E901E9802F0ABFCCDE9080104F00AFA7A
:10429000CDE90C012598006B099002F0A0FCCDE956
:1042A0000A01DDE90C2302F07EFBCDE910011E9826
:1042B00002F095FCCDE9080104F0A6F9CDE90C0166
:1042C0002598C06A099002F08AFCCDE90A01DDE96F
:1042D0000C2302F068FBCDE90E01DDE9102302F0AA
:1042E0005CFBCDE914011E9802F079FCCDE90801D0
:1042F00004F08AF9CDE90C011D9802F070FCCDE9BB
:10430000040104F0CFF9CDE908012598006B059070
:1043100002F065FCCDE90601DDE9082302F043FB6C
:10432000CDE90A01DDE90C2302F03DFBCDE91001E6
:104330001E9802F054FCCDE9040104F0B3F9CDE974
:1043400008011D9802F04BFCCDE9000104F0AAF928
:10435000CDE904012598C06A019002F040FCCDE946
:104360000201DDE9042302F01EFBCDE90601DDE9CF
:10437000082302F018FBCDE90C011D9802F02FFC78
:10438000CDE9040104F040F9CDE908012598806ADF
:10439000059002F024FCCDE90601DDE9082302F0D6
:1043A00002FBCDE90A01DDE90C2302F055FACDE963
:1043B0000E01DDE9102302F04FFACDE91201DDE92B
:1043C000142304F061F8CDE9160102F01BFC1F90E4
:1043D0001F9802F004FC0022FE4BCDE90A0102F016
:1043E000E2FACDE90C0104F05DF9CDE910011E9867
:1043F00002F0F5FB0022F74BCDE9060102F0D3FAFB
:10440000CDE9080104F04EF9CDE90C011D9802F048
:10441000E6FB0022EF4BCDE9060102F0C4FACDE93C
:10442000080104F03FF9CDE90A01DDE90C2302F0AF
:10443000BAFACDE90E01DDE9102302F0B4FACDE9B4
:1044400014011F9802F0CBFB0022E24BCDE90A01D8
:1044500002F0A9FACDE90C0104F0D6F8CDE910017B
:104460001E9802F0BCFB0022DA4BCDE9060102F0F7
:104470009AFACDE9080104F0C7F8CDE90C011D98BE
:1044800002F0ADFB0022D34BCDE9060102F08BFA1E
:10449000CDE9080104F0B8F8CDE90A01DDE90C2303
:1044A00002F081FACDE90E01DDE9102302F07BFA7A
:1044B000CDE91201DDE9142302F06FFACDE916010E
:1044C00002F0A0FB259908601F9802F088FB0022EB
:1044D000C04BCDE90A0102F066FACDE90C0104F007
:1044E000E1F8CDE910011E9802F079FB0022B94BEA
:1044F000CDE9060102F057FACDE9080104F084F88D
:10450000CDE90C011D9802F06AFB0022B14BCDE908
:10451000060102F048FACDE9080104F0C3F8CDE93C
:104520000A01DDE90C2302F03EFACDE90E01DDE9D6
:10453000102302F038FACDE914011F9802F04FFB66
:104540000022A44BCDE90A0102F02DFACDE90C01BD
:1045500004F05AF8CDE910011E9802F040FB002249
:104560009C4BCDE9060102F01EFACDE9080104F0EA
:1045700099F8CDE90C011D9802F031FB0022954B12
:10458000CDE9060102F00FFACDE9080104F03CF88C
:10459000CDE90A01DDE90C2302F005FACDE90E01AF
:1045A000DDE9102302F0FFF9CDE91201DDE9142362
:1045B00002F0F3F9CDE9160102F024FB25994860D9
:1045C0001F9802F00CFB0022824BCDE90A0102F099
:1045D000EAF9CDE90C0104F065F8CDE910011E9867
:1045E00002F0FDFA00227B4BCDE9060102F0DBF977
:1045F000CDE9080104F056F8CDE90C011D9802F050
:10460000EEFA0022734BCDE9060102F0CCF9CDE9B8
:10461000080103F0F9FFCDE90A01DDE90C2302F0FE
:10462000C2F9CDE90E01DDE9102302F0BCF9CDE9B4
:1046300014011F9802F0D3FA0022664BCDE90A015B
:1046400002F0B1F9CDE90C0103F0DEFFCDE9100174
:104650001E9802F0C4FA00225E4BCDE9060102F07A
:10466000A2F9CDE9080103F0CFFFCDE90C011D98B7
:1046700002F0B5FA0022574BCDE9060102F093F99A
:10468000CDE9080104F00EF8CDE90A01DDE90C23BB
:1046900002F089F9CDE90E01DDE9102302F083F97A
:1046A000CDE91201DDE9142302F0D6F8CDE91601B7
:1046B00002F0A8FA259988601F9802F090FA00226B
:1046C000444BCDE90A0102F06EF9CDE90C0103F08B
:1046D0009BFFCDE910011E9802F081FA00223D4BAC
:1046E000CDE9060102F05FF9CDE9080103F0DAFF38
:1046F000CDE90C011D9802F072FA0022354BCDE98C
:10470000060102F050F9CDE9080103F0CBFFCDE935
:104710000A01DDE90C2302F046F9CDE90E01DDE9DD
:10472000102302F040F9CDE914011F9802F057FA66
:104730000022284BCDE90A0102F035F9CDE90C0140
:1047400003F0B0FFCDE910011E9802F048FA0022F4
:10475000204BCDE9060102F026F9CDE9080103F06E
:1047600053FFCDE90C011D9802F039FA0022194BD4
:10477000CDE9060102F017F9CDE9080103F044FF85
:10478000CDE90A01DDE90C2302F00DF9CDE90E01B6
:10479000DDE9102302F007F9CDE91201DDE9142368
:1047A00002F05AF8CDE9160102F02CFA2599C860FA
:1047B0001D9802F014FA084A084BCDE9140102F0E2
:1047C000F2F8CDE9160102F01DFA1D901E9802F0D4
:1047D00006FA05E00000E03FCB67791EDCA54C40FF
:1047E000FD4AFE4BCDE9140102F0DDF8CDE91601DA
:1047F00002F008FA1E901F9802F0F1F9F64AF74B02
:10480000CDE9140102F0CFF8CDE9160102F0FAF972
:104810001F9000211F9802F011FA04D2F0491F984E
:1048200001F052FF1F90EE491F9802F011FA04D2D6
:10483000EB491F9801F09AFF1F900020189009E0A3
:1048400025984030189A1F9940F822101898401C5B
:10485000C0B2189018980A28F2DB27B000BD01B545
:1048600096B01698806F0D9002F0B9F9DA4ADB4BDA
:10487000CDE90E0102F009F9CDE9100102F0C2F90B
:1048800013901698C06F0D9002F0A9F9D24AD34B3D
:10489000CDE90E0102F0F9F8CDE9100102F0B2F90C
:1048A00012901698D0F880000D9002F098F9CA4A3C
:1048B000CA4BCDE90E0102F0E8F8CDE9100102F093
:1048C000A1F91490149802F08AF90022C54BCDE9A1
:1048D000040102F068F8CDE9060103F0E3FECDE93A
:1048E0000A01139802F07BF90022BE4BCDE90001CA
:1048F00002F059F8CDE9020103F0D4FECDE906013A
:10490000129802F06CF90022B64BCDE9000102F0DA
:104910004AF8CDE9020103F0C5FECDE90401DDE965
:10492000062302F040F8CDE90801DDE90A2302F090
:104930003AF8CDE90E01149802F051F90022A94B82
:10494000CDE9040102F02FF8CDE9060103F05CFE89
:10495000CDE90A01139802F042F90022A14BCDE9FA
:10496000000102F020F8CDE9020103F04DFECDE98F
:104970000601129802F033F900229A4BCDE90001AA
:1049800002F011F8CDE9020103F03EFECDE9040189
:10499000DDE9062302F007F8CDE90801DDE90A2385
:1049A00002F001F8CDE90C01DDE90E2301F0F5FF7D
:1049B000CDE9100102F026F916990860149802F06A
:1049C0000EF90022874BCDE9040101F0ECFFCDE99F
:1049D000060103F067FECDE90A01139802F0FFF823
:1049E0000022804BCDE9000101F0DDFFCDE902019D
:1049F00003F00AFECDE90601129802F0F0F8002259
:104A0000784BCDE9000101F0CEFFCDE9020103F0C2
:104A100049FECDE90401DDE9062301F0C4FFCDE93B
:104A20000801DDE90A2301F0BEFFCDE90E0114986B
:104A300002F0D5F800226B4BCDE9040101F0B3FF81
:104A4000CDE9060103F0E0FDCDE90A01139802F07B
:104A5000C6F80022634BCDE9000101F0A4FFCDE9C7
:104A6000020103F01FFECDE90601129802F0B7F82B
:104A700000225C4BCDE9000101F095FFCDE9020178
:104A800003F0C2FDCDE90401DDE9062301F08BFF4F
:104A9000CDE90801DDE90A2301F085FFCDE90C012C
:104AA000DDE90E2301F079FFCDE9100102F0AAF84B
:104AB00016994860149802F092F80022494BCDE90B
:104AC000040101F070FFCDE9060103F0EBFDCDE933
:104AD0000A01139802F083F80022424BCDE900014D
:104AE00001F061FFCDE9020103F0DCFDCDE9060133
:104AF000129802F074F800223A4BCDE9000101F05F
:104B000052FFCDE9020103F07FFDCDE90401DDE9AB
:104B1000062301F048FFCDE90801DDE90A2301F091
:104B200042FFCDE90E01149802F059F800222D4BF6
:104B3000CDE9040101F037FFCDE9060103F064FD82
:104B4000CDE90A01139802F04AF80022254BCDE97D
:104B5000000101F028FFCDE9020103F055FDCDE988
:104B60000601129802F03BF800221E4BCDE900012D
:104B700001F019FFCDE9020103F094FDCDE9040134
:104B8000DDE9062301F00FFFCDE90801DDE90A2385
:104B900001F009FFCDE90C01DDE90E2301F05CFE17
:104BA000CDE9100102F02EF816998860149802F0F1
:104BB00016F800220B4BCDE9040101F0F4FECDE91B
:104BC000060103F021FDCDE90A01139802F007F870
:104BD0000022044B08E00000CB67791EDCA54C40A6
:104BE0000000B4430000E03FCDE9000101F0DBFE2E
:104BF000CDE9020103F056FDCDE90601129801F05E
:104C0000EEFF0022FE4BCDE9000101F0CCFECDE924
:104C1000020103F047FDCDE90401DDE9062301F0BF
:104C2000C2FECDE90801DDE90A2301F0BCFECDE9B1
:104C30000E01149801F0D3FF0022F14BCDE90401DD
:104C400001F0B1FECDE9060103F02CFDCDE90A012A
:104C5000139801F0C4FF0022E94BCDE9000101F0F7
:104C6000A2FECDE9020103F0CFFCCDE906011298C6
:104C700001F0B5FF0022E24BCDE9000101F093FE07
:104C8000CDE9020103F0C0FCCDE90401DDE9062312
:104C900001F089FECDE90801DDE90A2301F083FE78
:104CA000CDE90C01DDE90E2301F0D6FDCDE91001BF
:104CB00001F0A8FF1699C86017B000BD03B59DB0FC
:104CC00000201C901B901D9880690C901D98806995
:104CD0000B900C9901F050FD0E901D9840690A90C0
:104CE0001D98406909900A9901F046FD0C901D98A5
:104CF00000690A901D98006909900A9901F03CFD2D
:104D00000B900C9901F0E0FC0D900E9901F0DCFC89
:104D10000F9001F064FFCDE9100103F013FDCDE920
:104D2000120101F06FFF1A901D98006913901A99F3
:104D300001F054FD1D9908611D98406913901A995E
:104D400001F04CFD1D9948611D98806913901A99D6
:104D500001F044FD1D9988611D98806810901D9890
:104D600000680F90109901F007FD12901D98C0681F
:104D700010901D9840680F90109901F0FDFC119063
:104D8000129901F0F3FC4FF08041139001F0F4FC14
:104D900019901D98C06810901D9880680F90109908
:104DA00001F0EAFC12901D98406810901D98006870
:104DB0000F90109901F0E0FC1190129901F084FC21
:104DC0004FF08041139001F0D7FC18901D98C068F7
:104DD00011901D98C0681090119901F0CDFC1390AE
:104DE0001D9880680F901D9880680E900F9901F0B3
:104DF000C3FC11901D9840680D901D9840680C9060
:104E00000D9901F0B9FC0F901D9800680D901D9848
:104E100000680C900D9901F0AFFC0E900F9901F015
:104E2000A5FC1090119901F0A1FC1290139901F0CA
:104E30004BFC17901D9880691190189901F09CFC0B
:104E400013901D9840691190179901F095FC1290EC
:104E5000139901F08BFC16901D9800691190179919
:104E600001F08AFC13901D9880691190199901F046
:104E700083FC1290139901F079FC15901D984069FC
:104E80001190199901F078FC13901D980069119008
:104E9000189901F071FC1290139901F067FC1490BD
:104EA000FDF766FD1D9988665649169801F064FC69
:104EB00013901D98C06E01461290139801F004FCE7
:104EC0001D99C8664F49159801F056FC13901D981E
:104ED000006F01461290139801F0F6FB1D990867C8
:104EE0004849149801F048FC13901D98406F014602
:104EF0001290139801F0E8FB01461D9841674FF0AE
:104F00008040169901F038FC12901D98C069014646
:104F10001190129801F0D8FB13901D98C06E0146B5
:104F20001290139801F0D0FB1D99C8614FF080409A
:104F3000159901F021FC12901D98006A014611900C
:104F4000129801F0C1FB13901D98006F014612905A
:104F5000139801F0B9FB1D9908624FF08040149935
:104F600001F00AFC12901D98406A014611901298B7
:104F700001F0AAFB13901D98406F01461290139800
:104F800001F0A2FB01461D9841621D98406A0F90F6
:104F90001D98C0680E900F9901F0EEFB11901D98BE
:104FA000006A0D901D9880680C900D9901F0E4FB4B
:104FB0000F901D98406880F000400D901D98C069CA
:104FC00001460C900D9801F0D7FB0E900F9901F05F
:104FD000CDFB1090119901F0C9FB12901D98806EC5
:104FE00001461190129801F0C7FB13901D980068BC
:104FF00001461290139801F067FB1D99086003E0C9
:105000000000E03F0AD7A33B1D98006A0F901D984F
:10501000C0680E900F9901F0AFFB11901D98406A87
:105020000D901D9880680C900D9901F0A5FB0F90D4
:105030001D98C0690D901D9800680C900D9901F0A5
:105040009BFB0E900F9901F03FFB1090119901F01E
:105050008DFB12901D98806E01461190129801F000
:105060008BFB13901D98406801461290139801F035
:105070002BFB1D9948601D98C0690F901D98C06852
:105080000E900F9901F078FB11901D98406A0D90D9
:105090001D9840680C900D9901F06EFB0F901D98C3
:1050A000006A0D901D9800680C900D9901F064FB4A
:1050B0000E900F9901F05AFB1090119901F004FB2A
:1050C00012901D98806E01461190129801F054FBC9
:1050D00013901D98806801461290139801F0F4FA1D
:1050E00001461D9881601D98C0690F901D988068C9
:1050F0000E900F9901F040FB11901D98006A0D90E1
:105100001D9840680C900D9901F036FB0F901D988A
:10511000406A0D901D9800680C900D9901F02CFBD1
:105120000E900F9901F0D0FA1090119901F01EFB2A
:1051300012901D98806E01461190129801F01CFB90
:1051400013901D98C06801461290139801F0BCFAA4
:105150001D99C8601D98C0680C901D98C0680B9080
:105160000C9901F009FB0E901D9880680A901D981B
:10517000806809900A9901F0FFFA0C901D98406828
:1051800008901D9840680790089901F0F5FA0A9078
:105190001D98006808901D9800680790089901F014
:1051A000EBFA09900A9901F08FFA0B900C9901F033
:1051B0008BFA0D900E9901F087FA0F9001F00FFD18
:1051C000CDE9100103F0BEFACDE9120101F01AFD9C
:1051D0001A901D98006813901A9901F0FFFA1D9912
:1051E00008601D98406813901A9901F0F7FA01467B
:1051F0001D9841601D98806813901A9901F0EEFA8D
:1052000001461D9881601D98C06813901A9901F09D
:10521000E5FA1D99C8601D984068014607904FF057
:10522000804001F0A9FA08901D98C06801460790D7
:10523000089801F0A1FA0A901D98006801460790AD
:105240004FF0804001F098FA08901D988068014660
:105250000790089801F090FA09900A9901F086FAEF
:105260000B9001F0BCFCCDE90C0102F0C5FEFE4A3A
:10527000FE4BCDE90E0101F008FC0022FC4BCDE90C
:10528000100101F090FBCDE9120101F0BBFC1D996A
:10529000C8671D988068014605904FF0804001F076
:1052A0006BFA06901D98806801460590069801F0FB
:1052B00063FA08901D984068014604904FF08040C2
:1052C00001F05AFA05901D9840680146049005982F
:1052D00001F052FA4FF07E51069001F04AFA079021
:1052E000089901F043FA099001F079FCCDE90C012D
:1052F0001D988068014605904FF0804001F03CFA0F
:1053000006901D98C06801460590069801F034FA91
:1053100008901D980068014605904FF0804001F00C
:105320002BFA06901D98406801460590069801F0FA
:1053300023FA0790089901F0C7F9099001F04FFC92
:10534000CDE90A01DDE90C2303F09EF8C64AC74BFC
:10535000CDE90E0101F099FB0022C54BCDE910010A
:1053600001F021FBCDE9120101F04CFC01461D9832
:1053700081671D98C06806901D98C06805900699C1
:1053800001F0FAF908901D98806804901D988068D3
:105390000390049901F0F0F906901D98406802907E
:1053A0001D9840680190029901F0E6F904901D985B
:1053B000006802901D9800680190029901F0DCF9E4
:1053C0000390049901F080F90590069901F0CEF957
:1053D0000790089901F0CAF9099001F000FCCDE9A5
:1053E0000C011D98C06805901D98006804900599EF
:1053F00001F0C2F907901D98806805901D984068DB
:105400000490059901F0B8F90690079901F05CF94C
:105410004FF08041089001F0AFF9099001F0DFFBF7
:10542000CDE90A01DDE90C2303F02EF88E4A8F4BFB
:10543000CDE90E0101F029FB00228D4BCDE91001D1
:1054400001F0B1FACDE9120101F0DCFB1D99C1F8C0
:1054500080001D98D0F880000021139001F0EEFB31
:1054600009D21D98D0F880008249139001F02CF9E0
:105470001D99C1F880001D98D0F880007D491390D7
:1054800001F0E6FB09D21D98D0F88000794913900D
:1054900001F06CF91D99C1F8800000201C901AE001
:1054A0001D9800F140011C98401C51F820201D98C7
:1054B00040301C9940F821201D9840301C9950F82C
:1054C0002100014613901B9801F0FEF81B901C98D8
:1054D000401CC0B21C901C980928E1DB1D98D0F834
:1054E000801041661D98406E014613901B9801F094
:1054F000EBF81B9060491B9801F070F91D99C1F8F9
:1055000080001D98C06F0D9001F069FBCDE912017C
:105510001D98806F0D9001F062FBCDE910011D9880
:10552000D0F880000D9001F05AFBCDE90E01DDE9C5
:105530001201CDE90201DDE91001CDE900014FA022
:10554000DDE90E2301F0B2FD1E9810B1012832D121
:1055500018E052480088B0F57A7F12DD5048008884
:10556000401C4F49088008460088B0F5FA6F05DDF9
:105570001D98FFF774F90020494908800020474929
:10558000088019E047480088B0F57A7F12DD464868
:105590000088401C4449088008460088B0F5FA6F2E
:1055A00005DD1D98FFF75BF900203F4908800020CA
:1055B0003C49088000E000BF00BF1FB000BD2DE9DE
:1055C000F04704464FF07C51204601F0D5F8814663
:1055D00025462E463548A0EB660635462946484600
:1055E00001F0CAF88246294601F0C6F880464FF01D
:1055F0007F5101F0BEF80746294601F0BDF8054687
:105600002846BDE8F08701B5AEB02E98006813902B
:105610002E9800681290139901F0AEF81D902E9804
:10562000406813902E9800681290139901F0A4F826
:105630001C902E98806813902E98006812901399F1
:1056400001F09AF81B902E98C06813902E9800686D
:105650001290139901F090F81A902E9840681390C8
:105660002E984068129023E01F85EB51B81E094028
:10567000008066400000B443000020415961773D3E
:1056800025662C2050697463683D25662C20526F76
:105690006C6C3D2566200A0D000000008000002093
:1056A000820000207C0000207E000020DF59375F50
:1056B000139901F061F819902E98806813902E9834
:1056C00040681290139901F057F818902E98C0680E
:1056D00013902E9840681290139901F04DF817908E
:1056E0002E98806813902E9880681290139901F07C
:1056F00043F816902E98C06813902E9880681290E8
:10570000139901F039F815902E98C06813902E98CF
:10571000C0681290139901F02FF814902E988069A8
:1057200010902E9880690F90109901F025F8129032
:105730002E9840690E902E9840690D900E9901F0B8
:105740001BF810902E9800690E902E9800690D900D
:105750000E9901F011F80F90109900F0B5FF11901B
:10576000129900F0B1FF1390FFF729FF2C902E98AB
:10577000006913902C9900F0FFFF2E9908612E9874
:10578000406913902C9900F0F7FF2E9948612E98EC
:10579000806913902C9900F0EFFF2E9988612E9864
:1057A000006B10902E98006B0F90109900F0E4FFA2
:1057B00012902E98C06A0E902E98C06A0D900E9985
:1057C00000F0DAFF10902E98806A0E902E98806A72
:1057D0000D900E9900F0D0FF0F90109900F074FF1B
:1057E0001190129900F070FF1390FFF7E8FE2C90D3
:1057F0002E98806A13902C9900F0BEFF2E99886233
:105800002E98C06A13902C9900F0B6FF2E99C862AA
:105810002E98006B13902C9900F0AEFF2E99086320
:105820001B99179800F050FF0C902E98006B0146C2
:105830000A904FF0804000F09FFF0B900C9900F011
:105840009BFF0D9001F0CBF9CDE910011A99189842
:1058500000F08CFF08902E98C06A014606904FF029
:10586000804000F089FF0790089900F085FF0990BB
:1058700001F0B5F9CDE90C01149801F0B0F9CDE9CA
:105880000401169801F0ABF90022FE4BCDE90001AE
:1058900001F086F8CDE90201DDE9042301F07DF88D
:1058A000CDE908012E98806A014604904FF08040AF
:1058B00000F062FF059001F092F9CDE90601DDE903
:1058C000082301F070F8CDE90A01DDE90C2300F0AE
:1058D000C3FFCDE90E01DDE9102300F0BDFFCDE9E6
:1058E000120101F08FF92B901C99159800F03EFFE2
:1058F0000C902E98006B01460A904FF0804000F00B
:105900003BFF0B900C9900F037FF0D9001F067F909
:10591000CDE91001149801F062F9CDE9040119985C
:1059200001F05DF90022D74BCDE9000101F038F814
:10593000CDE90201DDE9042301F02FF8CDE90801EA
:105940002E98C06A014604904FF0804000F014FF8A
:10595000059001F044F9CDE90601DDE9082301F0E5
:1059600022F8CDE90C011A99189800F0ADFE0890C4
:105970002E98806A014606904FF0804000F0FCFEB1
:105980000790089900F0F8FE099001F028F9CDE998
:105990000A01DDE90C2300F05FFFCDE90E01DDE92E
:1059A000102300F059FFCDE9120101F02BF92A90E4
:1059B000169801F014F9CDE90801199801F00FF9D2
:1059C0000022B04BCDE9040100F0EAFFCDE9060169
:1059D000DDE9082300F0E1FFCDE90C012E98006B12
:1059E000014608904FF0804000F0C6FE099001F09B
:1059F000F6F8CDE90A01DDE90C2300F0D4FFCDE98A
:105A000010011C99159800F05FFE0A902E98C06A4C
:105A1000014608904FF0804000F0AEFE09900A99D0
:105A200000F0AAFE0C901B99179800F09FFE0A90B8
:105A30002E98806A014608904FF0804000F09CFE4E
:105A400009900A9900F098FE0B900C9900F03CFE2A
:105A50000D9001F0C4F8CDE90E01DDE9102300F04E
:105A6000FBFECDE9120101F0CDF829902A990846F4
:105A700000F082FE12902B99084600F07DFE1190F6
:105A8000129900F021FE139002F082FE27902998CF
:105A900028901B99179800F069FE4FF080411390F1
:105AA00000F06AFE269015991C9800F00DFE4FF04C
:105AB0008041139000F060FE259019991D9800F028
:105AC00055FE1290169900F051FE1390149900F0B3
:105AD000FBFD24901B99179800F048FE11904FF0A1
